{
  "contractName": "tipHoldAndDistribute",
  "abi": [
    {
      "anonymous": false,
      "inputs": [
        {
          "indexed": false,
          "internalType": "string",
          "name": "message",
          "type": "string"
        },
        {
          "indexed": false,
          "internalType": "uint256",
          "name": "add",
          "type": "uint256"
        },
        {
          "indexed": false,
          "internalType": "uint256",
          "name": "balance",
          "type": "uint256"
        }
      ],
      "name": "Log",
      "type": "event"
    },
    {
      "anonymous": false,
      "inputs": [
        {
          "indexed": false,
          "internalType": "bool",
          "name": "transferHappen",
          "type": "bool"
        }
      ],
      "name": "Transferred",
      "type": "event"
    },
    {
      "constant": true,
      "inputs": [
        {
          "internalType": "uint256",
          "name": "",
          "type": "uint256"
        }
      ],
      "name": "staffMemberAddresses",
      "outputs": [
        {
          "internalType": "address payable",
          "name": "",
          "type": "address"
        }
      ],
      "payable": false,
      "stateMutability": "view",
      "type": "function"
    },
    {
      "constant": false,
      "inputs": [
        {
          "internalType": "string",
          "name": "_name",
          "type": "string"
        },
        {
          "internalType": "uint256",
          "name": "_level",
          "type": "uint256"
        }
      ],
      "name": "createStaffMember",
      "outputs": [],
      "payable": false,
      "stateMutability": "nonpayable",
      "type": "function"
    },
    {
      "constant": true,
      "inputs": [],
      "name": "getAllStaff",
      "outputs": [
        {
          "internalType": "address payable[]",
          "name": "",
          "type": "address[]"
        }
      ],
      "payable": false,
      "stateMutability": "view",
      "type": "function"
    },
    {
      "constant": true,
      "inputs": [],
      "name": "contractBalance",
      "outputs": [
        {
          "internalType": "uint256",
          "name": "",
          "type": "uint256"
        }
      ],
      "payable": false,
      "stateMutability": "view",
      "type": "function"
    },
    {
      "constant": true,
      "inputs": [],
      "name": "amountStillNeeded",
      "outputs": [
        {
          "internalType": "uint256",
          "name": "",
          "type": "uint256"
        }
      ],
      "payable": false,
      "stateMutability": "view",
      "type": "function"
    },
    {
      "constant": false,
      "inputs": [],
      "name": "payToContract",
      "outputs": [],
      "payable": true,
      "stateMutability": "payable",
      "type": "function"
    },
    {
      "constant": false,
      "inputs": [],
      "name": "transferToStaff",
      "outputs": [],
      "payable": false,
      "stateMutability": "nonpayable",
      "type": "function"
    }
  ],
  "bytecode": "0x608060405234801561001057600080fd5b5061082b806100206000396000f3fe6080604052600436106100705760003560e01c80638b7afe2e1161004e5780638b7afe2e146101025780639bd6456f1461012d578063e06d7d9b14610158578063f2f366671461022a57610070565b8063032e0868146100755780632aaf6af8146100e15780637c64290c146100eb575b600080fd5b34801561008157600080fd5b5061008a6102a5565b6040518080602001828103825283818151815260200191508051906020019060200280838360005b838110156100cd5780820151818401526020810190506100b2565b505050509050019250505060405180910390f35b6100e9610333565b005b3480156100f757600080fd5b50610100610440565b005b34801561010e57600080fd5b506101176105b2565b6040518082815260200191505060405180910390f35b34801561013957600080fd5b506101426105d1565b6040518082815260200191505060405180910390f35b34801561016457600080fd5b506102286004803603604081101561017b57600080fd5b810190808035906020019064010000000081111561019857600080fd5b8201836020820111156101aa57600080fd5b803590602001918460018302840111640100000000831117156101cc57600080fd5b91908080601f016020809104026020016040519081016040528093929190818152602001838380828437600081840152601f19601f8201169050808301925050505050505091929192908035906020019092919050505061060f565b005b34801561023657600080fd5b506102636004803603602081101561024d57600080fd5b8101908080359060200190929190505050610715565b604051808273ffffffffffffffffffffffffffffffffffffffff1673ffffffffffffffffffffffffffffffffffffffff16815260200191505060405180910390f35b6060600180548060200260200160405190810160405280929190818152602001828054801561032957602002820191906000526020600020905b8160009054906101000a900473ffffffffffffffffffffffffffffffffffffffff1673ffffffffffffffffffffffffffffffffffffffff16815260200190600101908083116102df575b5050505050905090565b7fc72c11333761a47423f2cbe54eda92b59b0b5977a444194492fe47f41b3c0ab4343073ffffffffffffffffffffffffffffffffffffffff16316040518080602001848152602001838152602001828103825260108152602001807f496e20706179546f436f6e747261637400000000000000000000000000000000815250602001935050505060405180910390a160003490506000811161043d576040517f08c379a000000000000000000000000000000000000000000000000000000000815260040180806020018281038252601f8152602001807f4e6f206d6f6e657920616464656420746f2074686520636f6e74726163742e0081525060200191505060405180910390fd5b50565b600061044a6105d1565b146104bd576040517f08c379a00000000000000000000000000000000000000000000000000000000081526004018080602001828103825260108152602001807f4e6f206d6f6e65792069732073656e740000000000000000000000000000000081525060200191505060405180910390fd5b60006001805490506104cd6105b2565b816104d457fe5b04905060005b60018054905081101561057257600181815481106104f457fe5b9060005260206000200160009054906101000a900473ffffffffffffffffffffffffffffffffffffffff1673ffffffffffffffffffffffffffffffffffffffff166108fc839081150290604051600060405180830381858888f19350505050158015610564573d6000803e3d6000fd5b5080806001019150506104da565b507f1a6483e82a4650c8e1045b23a64892b7d0ab56ac88d4cfb791c4bb1fa06877d16001604051808215151515815260200191505060405180910390a150565b60003073ffffffffffffffffffffffffffffffffffffffff1631905090565b60006105db6105b2565b61138810156105ed576000905061060c565b3073ffffffffffffffffffffffffffffffffffffffff16316113880390505b90565b816000803373ffffffffffffffffffffffffffffffffffffffff1673ffffffffffffffffffffffffffffffffffffffff1681526020019081526020016000206000019080519060200190610664929190610751565b50806000803373ffffffffffffffffffffffffffffffffffffffff1673ffffffffffffffffffffffffffffffffffffffff1681526020019081526020016000206001018190555060013390806001815401808255809150509060018203906000526020600020016000909192909190916101000a81548173ffffffffffffffffffffffffffffffffffffffff021916908373ffffffffffffffffffffffffffffffffffffffff160217905550505050565b6001818154811061072257fe5b906000526020600020016000915054906101000a900473ffffffffffffffffffffffffffffffffffffffff1681565b828054600181600116156101000203166002900490600052602060002090601f016020900481019282601f1061079257805160ff19168380011785556107c0565b828001600101855582156107c0579182015b828111156107bf5782518255916020019190600101906107a4565b5b5090506107cd91906107d1565b5090565b6107f391905b808211156107ef5760008160009055506001016107d7565b5090565b9056fea265627a7a72315820478cb79328a829ddec8ceb2ca28ee383b07a4da1cf6679bc98b123c9a32d9ae664736f6c634300050c0032",
  "source": "pragma solidity ^0.5.12;\n\n/*\n    This code has been written by Mathieu Gatsonides, student at THUAS.\n\n    I would like to create a contract that customers of a restaurant can tip to.\n    The tip will be distributed/sent to the restaurant's staff (2 fixed addresses in this example)\n    after a certain amount of tokens has been earned.\n\n\n    I ran into a buffer underflow, changed the calculation a bit to fix that.\n*/\n\n\ncontract tipHoldAndDistribute\n{\n    event Log(string message, uint add, uint balance);\n    event Transferred(bool transferHappen);\n\n    uint constant AMOUNT_NEEDED = 5000 wei;\n\n    struct staffMember\n    {\n        string name;\n        uint level;\n    }\n\n    mapping (address => staffMember) staffMemberStructs;\n    address payable[] public staffMemberAddresses;\n\n    function createStaffMember(string memory _name, uint _level) public\n    {\n        staffMemberStructs[msg.sender].name = _name;\n        staffMemberStructs[msg.sender].level = _level;\n        staffMemberAddresses.push(msg.sender);\n    }\n\n    function getAllStaff() external view returns (address payable[] memory)\n    {\n        return staffMemberAddresses;\n    }\n\n    //How many tokens are in the contract?\n    //I can use the address.balance() function for this\n    function contractBalance() public view returns(uint)\n    {\n        return address(this).balance;\n    }\n\n\n    //How many tokens are still needed for next payment?\n    function amountStillNeeded() public view returns(uint)\n    {\n        if((AMOUNT_NEEDED < contractBalance()))\n        {\n            return 0;\n        }\n        else\n        {\n            return (AMOUNT_NEEDED - address(this).balance);\n        }\n    }\n\n    //Tokens need to be paid to the contract, but I don't want that zero tokens are payable\n    function payToContract() public payable\n    {\n        emit Log(\"In payToContract\", msg.value, address(this).balance);\n        uint paid = msg.value;\n        require(paid > 0, \"No money added to the contract.\");\n    }\n\n\n    //Tokens need to be sent, they can only be sent when a certain amount is reached.\n    function transferToStaff() public\n    {\n        require(amountStillNeeded() == 0, \"No money is sent\");\n\n        uint amountPerStaffMember = (contractBalance()/staffMemberAddresses.length);\n\n        for(uint i; i < staffMemberAddresses.length; i++)\n        {\n            staffMemberAddresses[i].transfer(amountPerStaffMember);\n        }\n        emit Transferred(true);\n    }\n}\n",
  "sourcePath": "/home/mathieu/Documents/Blockchain_Minor_2/truffleProject/contracts/tipHoldAndDistribute.sol",
  "compiler": {
    "name": "solc",
    "version": "0.5.12+commit.7709ece9.Emscripten.clang"
  },
  "schemaVersion": "3.0.19",
  "updatedAt": "2019-12-16T08:43:32.568Z",
  "networkType": "ethereum",
  "devdoc": {
    "methods": {}
  },
  "userdoc": {
    "methods": {}
  }
}