{
  "contractName": "YoutubeViews",
  "abi": [
    {
      "inputs": [],
      "payable": false,
      "stateMutability": "nonpayable",
      "type": "constructor"
    },
    {
      "anonymous": false,
      "inputs": [
        {
          "indexed": false,
          "internalType": "string",
          "name": "description",
          "type": "string"
        }
      ],
      "name": "LogNewProvableQuery",
      "type": "event"
    },
    {
      "anonymous": false,
      "inputs": [
        {
          "indexed": false,
          "internalType": "string",
          "name": "views",
          "type": "string"
        }
      ],
      "name": "LogYoutubeViewCount",
      "type": "event"
    },
    {
      "constant": true,
      "inputs": [],
      "name": "viewsCount",
      "outputs": [
        {
          "internalType": "string",
          "name": "",
          "type": "string"
        }
      ],
      "payable": false,
      "stateMutability": "view",
      "type": "function"
    },
    {
      "constant": false,
      "inputs": [
        {
          "internalType": "bytes32",
          "name": "_myid",
          "type": "bytes32"
        },
        {
          "internalType": "string",
          "name": "_result",
          "type": "string"
        }
      ],
      "name": "__callback",
      "outputs": [],
      "payable": false,
      "stateMutability": "nonpayable",
      "type": "function"
    },
    {
      "constant": false,
      "inputs": [
        {
          "internalType": "bytes32",
          "name": "_myid",
          "type": "bytes32"
        },
        {
          "internalType": "string",
          "name": "_result",
          "type": "string"
        },
        {
          "internalType": "bytes",
          "name": "_proof",
          "type": "bytes"
        }
      ],
      "name": "__callback",
      "outputs": [],
      "payable": false,
      "stateMutability": "nonpayable",
      "type": "function"
    },
    {
      "constant": false,
      "inputs": [],
      "name": "update",
      "outputs": [],
      "payable": true,
      "stateMutability": "payable",
      "type": "function"
    }
  ],
  "bytecode": "0x608060405234801561001057600080fd5b506114fc806100206000396000f3fe60806040526004361061003f5760003560e01c80631e7d6de21461004457806327dc297e146100d457806338bbfa50146101a6578063a2e620451461030f575b600080fd5b34801561005057600080fd5b50610059610319565b6040518080602001828103825283818151815260200191508051906020019080838360005b8381101561009957808201518184015260208101905061007e565b50505050905090810190601f1680156100c65780820380516001836020036101000a031916815260200191505b509250505060405180910390f35b3480156100e057600080fd5b506101a4600480360360408110156100f757600080fd5b81019080803590602001909291908035906020019064010000000081111561011e57600080fd5b82018360208201111561013057600080fd5b8035906020019184600183028401116401000000008311171561015257600080fd5b91908080601f016020809104026020016040519081016040528093929190818152602001838380828437600081840152601f19601f8201169050808301925050505050505091929192905050506103b7565b005b3480156101b257600080fd5b5061030d600480360360608110156101c957600080fd5b8101908080359060200190929190803590602001906401000000008111156101f057600080fd5b82018360208201111561020257600080fd5b8035906020019184600183028401116401000000008311171561022457600080fd5b91908080601f016020809104026020016040519081016040528093929190818152602001838380828437600081840152601f19601f8201169050808301925050505050505091929192908035906020019064010000000081111561028757600080fd5b82018360208201111561029957600080fd5b803590602001918460018302840111640100000000831117156102bb57600080fd5b91908080601f016020809104026020016040519081016040528093929190818152602001838380828437600081840152601f19601f8201169050808301925050505050505091929192905050506104cb565b005b6103176104ee565b005b60058054600181600116156101000203166002900480601f0160208091040260200160405190810160405280929190818152602001828054600181600116156101000203166002900480156103af5780601f10610384576101008083540402835291602001916103af565b820191906000526020600020905b81548152906001019060200180831161039257829003601f168201915b505050505081565b6103bf610593565b73ffffffffffffffffffffffffffffffffffffffff163373ffffffffffffffffffffffffffffffffffffffff16146103f657600080fd5b806005908051906020019061040c929190611383565b507f8177e16da1b9eaea4b426e603a1b071c2d340d79d51f5451609d766e6a5f98ce600560405180806020018281038252838181546001816001161561010002031660029004815260200191508054600181600116156101000203166002900480156104b95780601f1061048e576101008083540402835291602001916104b9565b820191906000526020600020905b81548152906001019060200180831161049c57829003601f168201915b50509250505060405180910390a15050565b6000801b600360008060001b815260200190815260200160002081905550505050565b7fc4dc360d0a9c0677a3379ae0a3d81e887f761e65fdf3d7e00859d1bcd3c473896040518080602001828103825260368152602001806114926036913960400191505060405180910390a16105906040518060400160405280600381526020017f55524c00000000000000000000000000000000000000000000000000000000008152506040518060a0016040528060698152602001611429606991396108b0565b50565b60008073ffffffffffffffffffffffffffffffffffffffff16600160009054906101000a900473ffffffffffffffffffffffffffffffffffffffff1673ffffffffffffffffffffffffffffffffffffffff16148061061b57506000610619600160009054906101000a900473ffffffffffffffffffffffffffffffffffffffff16610df6565b145b1561062c5761062a6000610e01565b505b600160009054906101000a900473ffffffffffffffffffffffffffffffffffffffff1673ffffffffffffffffffffffffffffffffffffffff166338cc48316040518163ffffffff1660e01b8152600401602060405180830381600087803b15801561069657600080fd5b505af11580156106aa573d6000803e3d6000fd5b505050506040513d60208110156106c057600080fd5b810190808051906020019092919050505073ffffffffffffffffffffffffffffffffffffffff166000809054906101000a900473ffffffffffffffffffffffffffffffffffffffff1673ffffffffffffffffffffffffffffffffffffffff161461080957600160009054906101000a900473ffffffffffffffffffffffffffffffffffffffff1673ffffffffffffffffffffffffffffffffffffffff166338cc48316040518163ffffffff1660e01b8152600401602060405180830381600087803b15801561078e57600080fd5b505af11580156107a2573d6000803e3d6000fd5b505050506040513d60208110156107b857600080fd5b81019080805190602001909291905050506000806101000a81548173ffffffffffffffffffffffffffffffffffffffff021916908373ffffffffffffffffffffffffffffffffffffffff1602179055505b6000809054906101000a900473ffffffffffffffffffffffffffffffffffffffff1673ffffffffffffffffffffffffffffffffffffffff1663c281d19e6040518163ffffffff1660e01b815260040160206040518083038186803b15801561087057600080fd5b505afa158015610884573d6000803e3d6000fd5b505050506040513d602081101561089a57600080fd5b8101908080519060200190929190505050905090565b60008073ffffffffffffffffffffffffffffffffffffffff16600160009054906101000a900473ffffffffffffffffffffffffffffffffffffffff1673ffffffffffffffffffffffffffffffffffffffff16148061093857506000610936600160009054906101000a900473ffffffffffffffffffffffffffffffffffffffff16610df6565b145b15610949576109476000610e01565b505b600160009054906101000a900473ffffffffffffffffffffffffffffffffffffffff1673ffffffffffffffffffffffffffffffffffffffff166338cc48316040518163ffffffff1660e01b8152600401602060405180830381600087803b1580156109b357600080fd5b505af11580156109c7573d6000803e3d6000fd5b505050506040513d60208110156109dd57600080fd5b810190808051906020019092919050505073ffffffffffffffffffffffffffffffffffffffff166000809054906101000a900473ffffffffffffffffffffffffffffffffffffffff1673ffffffffffffffffffffffffffffffffffffffff1614610b2657600160009054906101000a900473ffffffffffffffffffffffffffffffffffffffff1673ffffffffffffffffffffffffffffffffffffffff166338cc48316040518163ffffffff1660e01b8152600401602060405180830381600087803b158015610aab57600080fd5b505af1158015610abf573d6000803e3d6000fd5b505050506040513d6020811015610ad557600080fd5b81019080805190602001909291905050506000806101000a81548173ffffffffffffffffffffffffffffffffffffffff021916908373ffffffffffffffffffffffffffffffffffffffff1602179055505b60008060009054906101000a900473ffffffffffffffffffffffffffffffffffffffff1673ffffffffffffffffffffffffffffffffffffffff1663524f3889856040518263ffffffff1660e01b81526004018080602001828103825283818151815260200191508051906020019080838360005b83811015610bb5578082015181840152602081019050610b9a565b50505050905090810190601f168015610be25780820380516001836020036101000a031916815260200191505b5092505050602060405180830381600087803b158015610c0157600080fd5b505af1158015610c15573d6000803e3d6000fd5b505050506040513d6020811015610c2b57600080fd5b8101908080519060200190929190505050905062030d403a02670de0b6b3a764000001811115610c61576000801b915050610df0565b6000809054906101000a900473ffffffffffffffffffffffffffffffffffffffff1673ffffffffffffffffffffffffffffffffffffffff1663adf59f9982600087876040518563ffffffff1660e01b8152600401808481526020018060200180602001838103835285818151815260200191508051906020019080838360005b83811015610cfc578082015181840152602081019050610ce1565b50505050905090810190601f168015610d295780820380516001836020036101000a031916815260200191505b50838103825284818151815260200191508051906020019080838360005b83811015610d62578082015181840152602081019050610d47565b50505050905090810190601f168015610d8f5780820380516001836020036101000a031916815260200191505b50955050505050506020604051808303818588803b158015610db057600080fd5b505af1158015610dc4573d6000803e3d6000fd5b50505050506040513d6020811015610ddb57600080fd5b81019080805190602001909291905050509150505b92915050565b6000813b9050919050565b6000610e0b610e12565b9050919050565b600080610e32731d3b2638a7cc9f2cb3d298a3da7a90b67e5506ed610df6565b1115610ed457731d3b2638a7cc9f2cb3d298a3da7a90b67e5506ed600160006101000a81548173ffffffffffffffffffffffffffffffffffffffff021916908373ffffffffffffffffffffffffffffffffffffffff160217905550610ecb6040518060400160405280600b81526020017f6574685f6d61696e6e6574000000000000000000000000000000000000000000815250611369565b60019050611366565b6000610ef373c03a2615d5efaf5f49f60b7bb6583eaec212fdf1610df6565b1115610f955773c03a2615d5efaf5f49f60b7bb6583eaec212fdf1600160006101000a81548173ffffffffffffffffffffffffffffffffffffffff021916908373ffffffffffffffffffffffffffffffffffffffff160217905550610f8c6040518060400160405280600c81526020017f6574685f726f707374656e330000000000000000000000000000000000000000815250611369565b60019050611366565b6000610fb473b7a07bcf2ba2f2703b24c0691b5278999c59ac7e610df6565b11156110565773b7a07bcf2ba2f2703b24c0691b5278999c59ac7e600160006101000a81548173ffffffffffffffffffffffffffffffffffffffff021916908373ffffffffffffffffffffffffffffffffffffffff16021790555061104d6040518060400160405280600981526020017f6574685f6b6f76616e0000000000000000000000000000000000000000000000815250611369565b60019050611366565b600061107573146500cfd35b22e4a392fe0adc06de1a1368ed48610df6565b11156111175773146500cfd35b22e4a392fe0adc06de1a1368ed48600160006101000a81548173ffffffffffffffffffffffffffffffffffffffff021916908373ffffffffffffffffffffffffffffffffffffffff16021790555061110e6040518060400160405280600b81526020017f6574685f72696e6b656279000000000000000000000000000000000000000000815250611369565b60019050611366565b600061113673a2998efd205fb9d4b4963afb70778d6354ad3a41610df6565b11156111d85773a2998efd205fb9d4b4963afb70778d6354ad3a41600160006101000a81548173ffffffffffffffffffffffffffffffffffffffff021916908373ffffffffffffffffffffffffffffffffffffffff1602179055506111cf6040518060400160405280600a81526020017f6574685f676f65726c6900000000000000000000000000000000000000000000815250611369565b60019050611366565b60006111f7736f485c8bf6fc43ea212e93bbf8ce046c7f1cb475610df6565b111561125b57736f485c8bf6fc43ea212e93bbf8ce046c7f1cb475600160006101000a81548173ffffffffffffffffffffffffffffffffffffffff021916908373ffffffffffffffffffffffffffffffffffffffff16021790555060019050611366565b600061127a7320e12a1f859b3feae5fb2a0a32c18f5a65555bbf610df6565b11156112de577320e12a1f859b3feae5fb2a0a32c18f5a65555bbf600160006101000a81548173ffffffffffffffffffffffffffffffffffffffff021916908373ffffffffffffffffffffffffffffffffffffffff16021790555060019050611366565b60006112fd7351efaf4c8b3c9afbd5ab9f4bbc82784ab6ef8faa610df6565b1115611361577351efaf4c8b3c9afbd5ab9f4bbc82784ab6ef8faa600160006101000a81548173ffffffffffffffffffffffffffffffffffffffff021916908373ffffffffffffffffffffffffffffffffffffffff16021790555060019050611366565b600090505b90565b806002908051906020019061137f929190611383565b5050565b828054600181600116156101000203166002900490600052602060002090601f016020900481019282601f106113c457805160ff19168380011785556113f2565b828001600101855582156113f2579182015b828111156113f15782518255916020019190600101906113d6565b5b5090506113ff9190611403565b5090565b61142591905b80821115611421576000816000905550600101611409565b5090565b9056fe68746d6c2868747470733a2f2f7777772e796f75747562652e636f6d2f77617463683f763d39625a6b70377131396630292e7870617468282f2f2a5b636f6e7461696e732840636c6173732c202277617463682d766965772d636f756e7422295d2f7465787428292950726f7661626c65207175657279207761732073656e742c207374616e64696e6720627920666f722074686520616e737765722e2e2ea265627a7a72315820131ae40bf78788934b8f2ad1adcb41fa05a2298bee7ac1dc667fbcc72a8577c964736f6c634300050c0032",
  "source": "pragma solidity >= 0.5.0 < 0.6.0;\n\nimport \"provableAPI.sol\";\n\ncontract YoutubeViews is usingProvable {\n\n    string public viewsCount;\n\n    event LogYoutubeViewCount(string views);\n    event LogNewProvableQuery(string description);\n\n    constructor()\n        public\n    {\n        //update(); // Update views on contract creation...\n    }\n\n    function __callback(\n        bytes32 _myid,\n        string memory _result\n    )\n        public\n    {\n        require(msg.sender == provable_cbAddress());\n        viewsCount = _result;\n        emit LogYoutubeViewCount(viewsCount);\n        // Do something with viewsCount, like tipping the author if viewsCount > X?\n    }\n\n    function update()\n        public\n        payable\n    {\n        emit LogNewProvableQuery(\"Provable query was sent, standing by for the answer...\");\n        provable_query(\"URL\", 'html(https://www.youtube.com/watch?v=9bZkp7q19f0).xpath(//*[contains(@class, \"watch-view-count\")]/text())');\n    }\n}\n\n",
  "sourcePath": "/home/mathieu/Documents/Blockchain_Minor_2/truffleProject/contracts/YoutubeViews.sol",
  "compiler": {
    "name": "solc",
    "version": "0.5.12+commit.7709ece9.Emscripten.clang"
  },
  "schemaVersion": "3.0.19",
  "updatedAt": "2019-12-16T08:43:32.572Z",
  "networkType": "ethereum",
  "devdoc": {
    "methods": {}
  },
  "userdoc": {
    "methods": {}
  }
}